:1000000000308A00272800000A108A100A1182078F
:10001000403479342434303419341234023478348E
:100020000034183423308400831300080319262871
:100030000130F800F701F70B1B28F80B1A284A309B
:10004000F700F70B21282428800B18283F280308E5
:100050001F39830007309F0083130030831686000A
:100060008312A1012108093C031C43282108042014
:10007000F80086000430A200FA30A3001228A20B78
:0A0080003C28A10A32283128630051
:02400E00413F30
:00000001FF
;PIC16F628A
;CRC=C38B  CREATED="20-Jul-20 11:34"
